:020000040800F2
:10000000180A012071020008071C0008651A000880
:10001000051C0008D10700083D2000080000000072
:100020000000000000000000000000000B1C0008A1
:100030007508000800000000091C00080D1C0008DD
:100040008B0200088B0200088B0200088B0200085C
:100050008B0200088B020008770800088B0200085A
:100060008B0200088B0200088B0200088B0200083C
:100070008B0200088B0200088B0200088B0200082C
:100080008B0200088B0200089D0600088B02000806
:100090008B0200088B0200088B0200088B0200080C
:1000A0008B0200088B0200088B0200088B020008FC
:1000B0008B0200088B0200088B0200088B020008EC
:1000C0008B0200088B0200088B0200088B020008DC
:1000D0008B0200088B020008312000088B02000808
:1000E0008B0200088B0200088B0200088B020008BC
:1000F0008B0200088B0200088B0200088B020008AC
:100100008B0200088B0200088B0200088B0200089B
:100110008B0200088B0200088B0200088B0200088B
:100120008B0200088B0200088B0200088B0200087B
:100130008B0200088B0200088B0200088B0200086B
:100140008B0200088B0200088B0200088B0200085B
:100150008B0200088B0200088B0200088B0200084B
:100160008B0200088B0200088B0200088B0200083B
:100170008B0200088B0200088B02000800000000C0
:100180008B0200088B02000800F002F800F061F812
:100190000AA090E8000C82448344AAF10107DA45E2
:1001A00001D100F056F8AFF2090EBAE80F0013F0D3
:1001B000010F18BFFB1A43F001031847AC1F0000E2
:1001C000CC1F00000A444FF0000C10F8013B13F064
:1001D000070408BF10F8014B1D1108BF10F8015BA0
:1001E000641E05D010F8016B641E01F8016BF9D193
:1001F00013F0080F1EBF10F8014BAD1C0C1B09D1EA
:100200006D1E58BF01F801CBFAD505E014F8016B5B
:1002100001F8016B6D1EF9D59142D6D370470000ED
:100220000023002400250026103A28BF78C1FBD8FF
:10023000520728BF30C148BF0B607047642900F0E7
:10024000F780002070471FB501F062FF1FBD10B599
:1002500010BD00F0E8F91146FFF7F5FF01F000FFCF
:1002600000F006FA03B4FFF7F2FF03BC00F00EFA49
:100270000948804709480047FEE7FEE7FEE7FEE73A
:10028000FEE7FEE7FEE7FEE7FEE7FEE70448054976
:10029000054A064B70470000111C00088901000840
:1002A00018040120180A0120180601201806012050
:1002B00053EA020C00F069802DE9F04B4FF0000684
:1002C000002B1FBFB3FA83F503FA05F424FA05F6F1
:1002D0005E4012BF1643B2FA82F502FA05F4C5F188
:1002E00020051EBF22FA05FC44EA0C04203556EA1C
:1002F000044C4FEA144418BF641C4FF000084FF040
:100300000009904271EB030C39D3002919BFB1FAEF
:1003100081F701FA07F6B0FA80F700FA07F6C7F19D
:1003200020071EBF20FA07FC46EA0C062037B6FB62
:10033000F4FCA7EB0507103F07F01F0BCBF12006DD
:100340000CFA0BFB2CFA06F644BFB3460026202F0E
:10035000A4BF5E464FF0000B5BEA060C08BF4FF0EF
:10036000010B19EB0B09ABFB027C48EB0608C01B29
:1003700006FB02CC0BFB03CC71EB0C01C1E70B4677
:10038000024641464846BDE8F08B13B54FF00000E9
:100390004FF00001AFF30080BDE81C407047000043
:1003A0000FB41CB5074B06AA7B446946009005981C
:1003B00000F021F90020694600F030F91CBC5DF81E
:1003C00014FB0000710200002DE9F0410E460446C6
:1003D000002020622046E168884730B3252805D0F8
:1003E000D4E901219047206A401CF2E7E1682046E9
:1003F00000278847050018D0A5F14100192802D828
:1004000020354FF400673246294620462760FFF723
:1004100015FF40B1012804D0F61D26F00706083666
:10042000D8E7361DD6E72846DAE7206ABDE8F0812E
:100430002DE9F0410646002410687529314616A5BD
:1004400010D0AFF30080002802DA404213A507E085
:1004500031688A0701D512A502E0490704D511A524
:10046000012401E0AFF3008000210A2206F12407F5
:1004700009E0B0FBF2FCB0FBF2F302FB1C003030F1
:1004800078541846491C0028F3D123462A463046A2
:10049000BDE8F04100F051B8000000002D00000060
:1004A0002B0000002000000010B5431C02E010F8F3
:1004B000011B71B18107FAD14FF0013202C88C1AC9
:1004C0008C4314EAC211F9D0C01A0A0603D0C01E28
:1004D00010BDC01A10BD0A0401D0801E10BD090253
:1004E000FCD0401E10BD4FF0000200B513469446EC
:1004F0009646203922BFA0E80C50A0E80C50B1F17C
:100500002001BFF4F7AF090728BFA0E80C5048BF8F
:100510000CC05DF804EB890028BF40F8042B08BF2D
:10052000704748BF20F8022B11F0804F18BF00F829
:10053000012B70477047704770472DE9F0470D4613
:1005400099469246044600F124080168880604D5BD
:10055000E06921F01001216000E00120A84201DDE6
:10056000471B00E00027A1697A1902EB0900081A6D
:10057000A0612078C00602D42046AFF30080002698
:1005800008E0D4E901211AF806009047206A401CCF
:10059000761C20624E45F4DB2078C0060AD5204642
:1005A000AFF3008006E0D4E9012130209047206AB3
:1005B000401C2062381EA7F10107F4DC07E0D4E9F3
:1005C000012118F805009047206A401C2062281E6F
:1005D000A5F10105F3DC2046AFF30080207800068A
:1005E00002D50220BDE8F0870120FBE701694A1C23
:1005F00002610878704700B58FB0CDE90131002164
:10060000059105497944CDE9031011466846FFF785
:10061000DBFE0FB000BD0000E5FFFFFF0A6802F837
:10062000010B0A607047754600F02CF8AE460500D5
:100630006946534620F00700854618B020B5FFF7FD
:1006400025FEBDE820404FF000064FF000074FF0B8
:1006500000084FF0000B21F00701AC46ACE8C009E0
:10066000ACE8C009ACE8C009ACE8C0098D467047E9
:1006700010B50446AFF300802046BDE81040FFF7F8
:10068000F1BD000000487047B8030120014918205F
:10069000ABBEFEE72600020070470000014800F0F4
:1006A0000FBA0000A0020120464910B54A6822F4A2
:1006B00040324A604A6843681A434A6001684A689F
:1006C00022F480724A6001684A68036942EA0322A0
:1006D0004A6001684A6822F040724A6001684A68CC
:1006E00083681A434A6001688A6822F400628A605B
:1006F00001688A68C3681A438A60816A6FF0706211
:10070000D14201688A6822F070628A6001688A6852
:100710000CD0836A1A438A6001688A6822F04052CA
:100720008A6001688A68C36A1A4301E022F0405275
:100730008A6001688A6822F002028A6001688A6819
:10074000037E42EA43028A6090F820100029016883
:100750004A680FD042F400624A6001684A6822F495
:1007600060424A6001684A68174C436A04EB4333AD
:100770001A4301E022F400624A600168CA6A22F466
:100780007002CA620168CA6A838B104C04EB03537F
:100790001A43CA6201688A6822F400728A6001689A
:1007A0008A6890F8303042EA43228A6001688A6899
:1007B00022F480628A6001688A68406942EA802087
:1007C000886010BD0023014000E0FFFF0000F0FF43
:1007D000FEE7000070B52448FFF766FE82B264238E
:1007E0002149224801F0E4F84FF4FA64204600F071
:1007F00055FB1D48C530FFF757FE1B4982B26423E5
:10080000C5311A4801F0D4F841F27075284600F05D
:1008100045FB1548D230FFF747FE134982B26423E7
:10082000D231124801F0C4F8284600F037FB0E48D8
:10083000E630FFF739FE0C4982B26423E6310B48FB
:1008400001F0B6F842F2107000F028FB0848FFF7FC
:100850002BFE82B264230649044801F0A9F8204621
:10086000BDE8704000F01ABB1200002030030120E8
:100870002A0100207047012000F056BB704700009D
:1008800078B50024009490F83C20012A19D0012268
:1008900080F83C200A6807230568092A13D9EE6806
:1008A0000A3A02EB420293409E43EE600B788A685C
:1008B0000A3B03EB43039A400368DD682A43DA608E
:1008C00010E0022078BD2E6902EB420293409E4365
:1008D0002E610B788A6803EB43039A4003681D6915
:1008E0002A431A614A681F23072A13D205686E6BD0
:1008F000521E02EB820293409E436E630B790A887C
:100900005B1E92B203EB83039A4003685D6B2A433C
:100910005A6327E005680D2A12D22E6BD21F02EB14
:10092000820293409E432E630B790A88DB1F92B2AA
:1009300003EB83039A4003681D6B2A431A6311E09B
:10094000EE6A0D3A02EB820293409E43EE620B790F
:100950000A880D3B92B203EB83039A400368DD6A79
:100960002A43DA62164B0568144A9D4206D10D6887
:10097000122D03D1556845F48005556005689D42E8
:1009800018D10B68102B01D0112B13D1536843F4ED
:1009900000035360096810290CD10A490A4A096802
:1009A000B1FBF2F101EB8101490000E0491E009129
:1009B0000029FBD180F83C40002078BD0023014095
:1009C000002001407001002040420F0038B500684F
:1009D0002E49884259D12E4D6868401C68602D48C8
:1009E00000F06BF8696805F10C0404EB410203297F
:1009F00022F8020C49D10020686004F1A300FFF73F
:100A000053FD82B22348642304F1A301D43000F0E3
:100A1000CFFF04F22D10FFF747FD82B21D4864237B
:100A200004F22D11903000F0C3FF1B4D2846401EEC
:100A3000FDD2A08800906388228818491848FFF7E3
:100A4000AFFC1748FFF730FD0246124815A1653884
:100A5000FFF7A6FC0F486538FFF726FD0D4982B267
:100A60006539642301F1F50000F0A2FF6D1EFDD28F
:100A70000B48FFF719FD0A4982B2642301F2BD1049
:100A800000F096FF0B48401EFDD238BD002001400B
:100A900000000020A0020120FE117A00242100089D
:100AA0007301012041542B43495053454E443D2589
:100AB000640D0A00FE083D0070470068C06C704776
:100AC00070B5044600680668456816F0020F05F028
:100AD00020012AD049B3216CC90603D4216C41F40A
:100AE00000712164816811F0405F17D1217EA9B99E
:100AF000C16A11F4700F02D0816849050ED44168B3
:100B000021F020014160206C20F480702064206C72
:100B1000C00403D4206C40F0010020642046FFF79D
:100B200055FF21686FF01200086016F0040F05F001
:100B3000800132D089B3206CC00603D4206C40F40D
:100B4000005020642068816811F4401F1ED1816B21
:100B500011F4401F02D08168490517D44168490546
:100B600014D4816811F0405F10D1217E71B94168C1
:100B700021F080014160206C20F480502064206CC2
:100B8000C00503D4206C40F0010020642046FFF72C
:100B900075FE21686FF00C00086016F0010F05F07B
:100BA00040010FD071B120680068C0070AD0206CE6
:100BB00040F480302064204600F043F821686FF054
:100BC0000100086016F0200F05F080610ED00029AA
:100BD0000CD0606C40F00200606420686FF020056B
:100BE00005602046FFF768FF2068056070BD70B59E
:100BF00004004FF0000503D0206C002610B107E080
:100C0000012070BD204600F01DF8666484F83C6049
:100C1000206CC00610D4206C20F4885040F00200F4
:100C200020642046FFF740FD6664206C20F002003F
:100C300040F00100206400E0012584F83C60284673
:100C400070BD704730B587B0044614216846FFF781
:100C50004AFC1D492068884234D11C4800240168A0
:100C600041F480710160006800F4807005901748BD
:100C70001438016841F001010160016801F00101CF
:100C80000591016841F0040101600068032500F04E
:100C9000040005901020CDE90005694602940C4837
:100CA00000F04EF93020CDE900056946029409486C
:100CB00000F046F900220221122000F0ADFA1220C5
:100CC00000F09CFA07B030BD0020014044380240DB
:100CD000000002400008024018B50021009190F881
:100CE0003C20012A07D0012280F83C20026893684A
:100CF000DB0702D011E0022018BD936843F0010326
:100D00009360314A314B1268B2FBF3F202EB4202BC
:100D100000E0521E0092002AFBD102689368DB07B4
:100D200047D0036C40F20164A34343F4807303642F
:100D300053685B0505D5036C23F4005343F48053DB
:100D40000364036CDB0404D5436C23F006034364A3
:100D500000E0416480F83C101D4B6FF022011160EF
:100D600001684A681B4C22434A6059680068CA06F9
:100D7000194906D0884224D1816811F0405F13D010
:100D80001FE08842F8D0154A904203D1D1F80423DD
:100D9000D206F1D0124A904213D1D1F8041301F0D7
:100DA0001F011029E8D30CE0816841F08041816087
:100DB00007E0016C41F010010164416C41F0010158
:100DC0004164002018BD00007001002040420F0067
:100DD00000230140200000040020014000210140C8
:100DE000002201402DE9F0410446876D00F0A6F98C
:100DF000064694F835000025022806D0802060655C
:100E000084F834500120BDE8F0812068016821F0A9
:100E1000160101602068416921F080014161206C68
:100E200008B9A06C20B12068016821F008010160B8
:100E30002068016821F0010101600CE000F07EF9FA
:100E4000801B052807D920206065032084F8350021
:100E500084F83450D7E720680068C007EED194F8D2
:100E60005C103F208840B860012084F8350084F889
:100E700034500020C7E790F83510022903D08021B4
:100E8000416501207047052180F835100068016830
:100E900021F00101016000207047000070B5044698
:100EA00000F04CF90546601C02D004480078044468
:100EB00000F044F9401BA042FAD370BD6401002049
:100EC00070B501282AD1164C2068401C20600128EA
:100ED0000ED1144800F08EFA04F11900FFF7E4FA7D
:100EE00082B21048642304F119018C3000F060FDD7
:100EF0002068022812D1002540074562094800F009
:100F0000B5FA07484B30FFF7CFFA82B204490548DB
:100F100064234B318C3000F04BFD256070BD000028
:100F200000000020E8020120044910B50A680242CE
:100F300002D00860FFF7C4FF10BD0000143C014060
:100F40002DE9F84FDFF8BCA10022012503264FF060
:100F50000F090AF1040BAAF1040E00BF0B6805FA91
:100F600002F42340A34270D10F7907F00307012F49
:100F700001D0022F16D187684FEA420806FA08FC12
:100F800027EA0C07D1F80CC00CFA08FC4CEA070C55
:100F9000C0F808C04768A7430C79C4F30014944014
:100FA0003C4344600C79E443A4070AD0C4684FEA88
:100FB000420C06FA0CF7BC438F6807FA0CF727437C
:100FC000C7600C7904F00304022C12D1D40800EBA2
:100FD000840CDCF820405707FF0E09FA07F824EAD2
:100FE0000804D1F8108008FA07F848EA0408CCF899
:100FF000208004684FEA420C06FA0CF7BC430F79D4
:1010000007F0030707FA0CF7274307604C6814F44E
:10101000403F70D03C4C276847F4804727602468E5
:1010200022F0030704F480440094384C07EB040CCE
:10103000DCF8084897074FEA177809FA08F7BC4325
:10104000334FB84202D1002724E054E0314FB84278
:1010500001D101271EE0304FB84201D1022719E02B
:101060002E4FB84201D1032714E02D4FB84201D1D1
:1010700004270FE02B4FB84201D105270AE02A4F81
:10108000B84201D1062705E0284FB84201D1072711
:1010900000E0082707FA08F72743CCF80878DAF8C1
:1010A00000405746D1F804C09C435FEACC2C00D5E1
:1010B0001C433C60DBF800405F46D1F804C09C4311
:1010C0005FEA8C2C00D51C433C60DEF8004077467C
:1010D000D1F804C09C435FEA8C3C00D51C433C60C3
:1010E000084F083F3C68D1F804C09C435FEACC3C01
:1010F00000D51C433C60521C102AFFF42FAFBDE802
:10110000F88F0000083C01404438024000300140A4
:10111000000002400004024000080240000C0240AF
:10112000001002400014024000180240001C02405F
:101130000AB1816170470904FBE70000014880683B
:101140007047000064010020024881680278114461
:1011500081607047640100200B4810B5016841F4BC
:1011600000710160016841F480610160016841F42F
:1011700080710160032000F06FF80F2000F006F886
:1011800000F024F8002010BD003C024070B50D4D69
:1011900004464FF47A712878B1FBF0F00A490968E7
:1011A000B1FBF0F000F08AF848B9102C07D2002209
:1011B0002146501E00F030F800206C6070BD012008
:1011C00070BD000064010020700100200A4808B5CD
:1011D000016841F480410160006800F480400090A3
:1011E0000548001F016841F080510160006800F06F
:1011F0008050009008BD000044380240002809DB00
:1012000000F01F02012191404009800000F1E02020
:10121000C0F8001170470000F0B40E4B1B680C467C
:10122000C3F30223C3F10705042D00D90425191DBA
:10123000072901D2002300E0DB1E012606FA05F192
:10124000491E214099409E40761E16403143F0BC15
:1012500000F0F5BE0CED00E0064900F0070208685A
:101260004FF6FF03184040EA0220034A104308608B
:10127000704700000CED00E00000FA050448054945
:1012800000680968044AC1F38221515CC840704774
:1012900070010020083802401A210008044805495E
:1012A00000680968044AC1F34231515CC840704784
:1012B00070010020083802401A21000810B5401EB5
:1012C000B0F1807F01D3012010BD4FF0E0246061B8
:1012D0000F21601700F0B3FE0020A06107202061FD
:1012E000002010BD70B590F83C20012A32D00124B6
:1012F00080F83C40022280F83D2003685A689D68CF
:1013000022F070060A6832435A60134B02689A4210
:1013100014D0B2F1804F11D0104B9A420ED0104B26
:101320009A420BD00F4B9A4208D00F4B9A4205D0ED
:101330000E4B9A4202D00E4B9A4204D1496825F0D6
:1013400080031943916080F83D40002180F83C10F3
:10135000084670BD022070BD00000140000400403E
:1013600000080040000C0040000401400040014023
:101370000018004010B5040003D094F83D0010B1EF
:1013800007E0012010BD002084F83C00204600F05A
:101390001FF8022084F83D00211D206800F040FC69
:1013A000012084F8460084F83E0084F83F0084F869
:1013B000400084F8410084F8420084F8430084F837
:1013C000440084F8450084F83D00002010BD000072
:1013D00008B50068B0F1804F08D10548016841F0B8
:1013E00001010160006800F00100009008BD0000EC
:1013F0004038024090F83D10012901D0012070478B
:10140000022180F83D1000681149884214D0B0F1E3
:10141000804F11D00F4988420ED00F4988420BD01F
:101420000E49884208D00E49884205D00D498842AD
:1014300002D00D49884204D1816801F007010629D4
:1014400003D0016841F001010160002070470000F5
:10145000000001400004004000080040000C004073
:1014600000040140004001400018004001680A6A81
:1014700041F211131A4207D10A6A9B101A4203D192
:101480000A6822F001020A60012180F83D10002064
:10149000704770B5044690F83C000025012817D02D
:1014A000012684F83C60022084F83D0020688268B0
:1014B00022F0770222F47F4282600868502838D0F8
:1014C0000DDC20284FD005DC90B3102811D14AE064
:1014D000022070BD302846D040280AD13BE0602869
:1014E0002FD070280DD0B0F5805F03D0B0F5005F2D
:1014F00012D0012584F83D60002084F83C00284685
:1015000070BDCB68D1E90121206800F0EDFB2068B7
:10151000816841F0770109E0CB68D1E901212068B9
:1015200000F0E2FB2068816841F480418160E1E7DE
:1015300019E0CA684968206800F0E8FB502120687B
:1015400006E0CA684968206800F0F1FB6021206865
:1015500000F0D4FBCEE7CA684968206800F0D6FBEB
:1015600040212068F4E7226801461046F0E718B5EC
:10157000034690F83E00202822D181B17AB193F839
:101580003C0001281CD0012083F83C001863184659
:1015900000F0F4FC002803D1196B012901D00120CF
:1015A00018BD19680A684968009119680C3151E83A
:1015B000002F42F0100241E80024002CF5D118BDA4
:1015C000022018BD70B50068104A90421CD10A462E
:1015D0000F49642301F5813000F0EAF90D4C002534
:1015E0000B4EA56002E07554491CA1600848FEF747
:1015F0005BFFA1688842F6D8BDE870404FF6FF72E5
:1016000003490548FFF7B3BF70BD00000044004028
:10161000740100200000002030030120704700000A
:10162000F8B5016804460868CA684B6910F00F0FE6
:101630004FF0000559D003F0010602F490773743CC
:1016400065D0C10705D0D10503D5216C41F001015A
:101650002164410705D5D90703D0216C41F002016F
:101660002164810705D5D90703D0216C41F004011D
:101670002164010707D502F02001314303D0216C1A
:1016800041F008012164216C00293AD0800604D57C
:10169000900602D5204600F08BFB20684069216C43
:1016A000C0F38010090700D460B3204600F059FB56
:1016B00020684069400621D52068143050E8001F9A
:1016C00021F0400140E80012002AF5D1A06BA8B13A
:1016D0006C490165A06BFFF7CEFB002811D0A06B11
:1016E000016D01B0BDE8F040084783060FD59306B1
:1016F0000DD52046BDE8F84000F05ABB2046FFF764
:101700008DFFF8BD2046FFF789FF2564F8BD266BE5
:101710002023012E79D1C60677D5D60675D508685F
:10172000486800904869400640D5A16B0868406849
:101730000004000CEAD0A28D8242E7D9E085C86996
:10174000B0F5807F2DD020680C3050E8001F21F4C8
:10175000807140E80012002AF5D12068143050E86A
:10176000001F21F0010140E80012002AF5D1206895
:10177000143050E8001F21F0400140E80012002A18
:10178000F5D184F83E30256320680C3050E8001F06
:1017900021F0100140E80012002AF5D1A06BFFF7FC
:1017A00021FBA08DE18D401A81B229E0A08DE18D51
:1017B000401A81B2E08D0028A8D00029A6D0206868
:1017C0000C3050E8002F22F4907240E80026002EE2
:1017D000F5D12068143050E8002F22F0010240E8D3
:1017E0000026002EF5D184F83E30256320680C30A9
:1017F00050E8002F22F0100240E80023002BF5D122
:101800002046FFF7DFFEF8BDFFE705062BD51506DE
:1018100029D594F83D002128F5D1A068B0F5805F66
:1018200001D12069B0B1206A411C21622168007891
:101830004860E08C401E0004000CE084E3D1206886
:10184000C16821F08001C1602068C16841F0400199
:10185000C160D8E7206A0088C0F308004860206AA9
:10186000801C2062E5E74006CDD55006CBD5CA687E
:10187000204622F04002CA6084F83D3000F0F1F8C2
:10188000C1E70000531D000870B5040004D094F8AF
:101890003D00002510B106E0012070BD84F83C50E9
:1018A000204600F023F8242084F83D002068C16819
:1018B00021F40051C160204600F0DAFA2068016985
:1018C00021F4904101612068416921F02A014161C0
:1018D0002068C16841F40051C1602564202084F86B
:1018E0003D0084F83E00002070BD0000F0B587B0D8
:1018F000044614216846FEF7F6FD2848264F266860
:10190000002226491038022303240725BE4223D192
:101910000E6846F400360E60096801F40031059146
:10192000016841F001010160006802AE00F00100B1
:1019300005900C20CDE9000386E83400694618487C
:10194000FFF7FEFA002201212620FFF765FC262082
:10195000FFF754FC07B0F0BD124FBE42FAD10E683B
:1019600046F480260E60096801F480210591016823
:1019700041F002010160006802AE00F00200059033
:101980004FF44060CDE9000386E83400694606481C
:10199000FFF7D6FADEE7000000440040403802407E
:1019A0000000024000480040000402407047000070
:1019B0002DE9F843044690F83D001F4616460D46B3
:1019C00020284CD1C5B1BEB194F83C00012846D0C6
:1019D000012084F83C004FF00008C4F8408021202A
:1019E00084F83D00FFF7AAFBA6848146E684A06840
:1019F000B0F5805F03D004E00120BDE8F8832069E2
:101A000028B12E465FF0000584F83C800EE00026E9
:101A1000FAE78021204600F0CEFAA0B9AEB116F860
:101A2000010B21684860E08C401EE084E08C4B464E
:101A30004FF0000200970028EBD14FF04001204604
:101A400000F0B9FA30B10320D7E735F8020BC0F344
:101A50000800E6E7202084F83D000020CDE70220C2
:101A6000CBE77047FEE700007FB5002421480094D3
:101A7000019402941E490394016001254FF4403102
:101A80000561C0E90114047680F820502907C1627D
:101A900003267106C460C0E90961C66180F8304060
:101AA0004561FFF7A4F808B172B6FEE70420CDE95E
:101AB0000005694602940F48FEF7E2FE08B172B6CF
:101AC000FEE70E2000900220019069460948FEF7CB
:101AD000D7FE08B172B6FEE70F20CDE900066946D1
:101AE0000448FEF7CDFE002801D072B6FEE77FBDA8
:101AF00000200140A0020120F0B587B01421684603
:101B0000FEF7F1FC22480024016841F00101016068
:101B1000016801F001010591016841F004010160D3
:101B2000016801F004010591016841F002010160C2
:101B3000016801F002010591016841F008010160AE
:101B40000068144F00F008004FF480560590002202
:101B500031463846FFF7ECFA01254FF4881000951E
:101B6000CDE9010469460C48FFF7EAF90096CDE992
:101B70000154694638460394FFF7E2F90022114602
:101B80000620FFF749FB0620FFF738FB07B0F0BD42
:101B900030380240000C02400000024010B586B010
:101BA00000241748009401940294039404944FF085
:101BB00080410594016043F67F61C0E9011443F65A
:101BC0009721C0E903148461FFF7D4FB08B172B612
:101BD000FEE74FF48050009069460948FFF759FC32
:101BE00008B172B6FEE72020CDE9040404A9044838
:101BF000FFF778FB002801D072B6FEE706B010BDF3
:101C0000E8020120FEE7FEE770477047FFF79CBA45
:101C10000248016841F470010160704788ED00E0FE
:101C2000F0B50268254C264D264E274F274B4FF026
:101C3000804CA04209D0604507D0A84205D0B042F0
:101C400003D0B84201D0984204D122F0700E4A6805
:101C500042EA0E02A0421BD0604519D0A84217D01C
:101C6000B04215D0B84213D0984211D0184DA842B6
:101C70000ED0184DA8420BD0174DA84208D0174DD2
:101C8000A84205D0164DA84202D0164DA84203D155
:101C900022F44075CA682A434D6922F080022A4323
:101CA00002608A68C2620A688262A04201D09842D9
:101CB00001D10969016301214161F0BD00000140CA
:101CC0000004004000080040000C004000040140F7
:101CD000004001400044014000480140001800401D
:101CE000001C00400020004010B5846842EA032236
:101CF00024F47F440A432243826010BD826822F0AC
:101D000070020A4342F007018160704710B5036A10
:101D1000046A24F001040462846924F0F00444EAB3
:101D2000021423F00A020A438461026210BD10B556
:101D3000036A23F0100303628369046A23F4704387
:101D400043EA023224F0A00343EA011182610162F6
:101D500010BD10B5806B0021C185C184FFF75EFC0A
:101D600010BD01680C3151E8002F22F4907241E857
:101D70000023002BF5D10168143151E8002F22F027
:101D8000010241E80023002BF5D1016B012909D1A3
:101D900001680C3151E8002F22F0100241E80023C5
:101DA000002BF5D1202180F83E10002101637047FF
:101DB00008B590F83E10222901D0022008BD8268A3
:101DC0004FF480539A4201D1016921B1816A9A424C
:101DD0001BD04AB10AE00268816A5268C2F3080265
:101DE0000A80816A891C08E0026972B1026852683F
:101DF00002F07F020A70816A491C8162C18D491E0E
:101E00000904090CC18503D019E002685268F1E7A2
:101E10000168CA6822F02002CA600168CA6822F418
:101E20008072CA6001684A6922F001024A61202179
:101E300080F83E10016B012903D0FFF7B7FD0020A9
:101E400008BD0021016301680C3151E8002F22F028
:101E5000100241E80023002BF5D101680A68D20680
:101E600002D50A6849680091818DFFF7ABFBE6E770
:101E700070B5044600680169E26821F440511143DD
:101E800001612169A068E26908436169114308435F
:101E90002168CA6849F20C639A430243CA60206809
:101EA0004169A26921F440711143416131492068BF
:101EB000884202D03049884202D1FFF7EFF901E0B1
:101EC000FFF7DCF9E2690023192164253226B2F517
:101ED000004F626828D0A0FB0101930F9200FEF72B
:101EE000E7F90146B0FBF5F06FF01802504301EB43
:101EF000800006EB0010B0FBF5F000F0F002B1FB43
:101F0000F5F002EB0012B1FBF5F06FF01803584347
:101F100001EB800006EB0010B0FBF5F000F00F00C5
:101F200021681044886070BDA0FB010192185B41DC
:101F3000FEF7BEF90146B0FBF5F00201B1FBF5F08A
:101F40006FF01803584301EB800006EBC000B0FBB4
:101F5000F5F000F0F80002EB4002B1FBF5F0584359
:101F600001EB800006EBC000B0FBF5F000F00700CD
:101F7000D6E7000000100140001401408162828514
:101F8000C28500210164222280F83E2080F83C10A6
:101F9000016921B10168CA6842F48072CA600168AF
:101FA0004A6942F001024A610068C16841F02001BB
:101FB000C160002070472DE9F041984617460E4653
:101FC0000446069D27E0681C25D02DB1FFF7B6F822
:101FD000A0EB0800A8421ED920680C3050E8001F72
:101FE00021F4D07140E80012002AF5D120681430A5
:101FF00050E8001F21F0010140E80012002AF5D14D
:10200000202084F83D0084F83E00002084F83C0045
:102010000320BDE8F0812068006836EA000004D0A3
:102020000020B842CFD00020F3E70120F9E70000FC
:102030000148FFF7F5BA000030030120FEE7090769
:10204000090E002804DB00F1E02080F8001470473E
:1020500000F00F0000F1E02080F8141D7047000030
:10206000FFF77AF8FFF748FDFFF7FEFCFFF796FD54
:10207000234822494FF4E13500240160C0E90154AE
:102080000C26C460C0E904468461C461FFF7FCFB10
:1020900008B172B6FEE71A481A4944300160C0E937
:1020A0000154C460C0E904468461C461FFF7ECFBDD
:1020B00008B172B6FEE74FF6FF7213491048FFF7FA
:1020C00056FA1248FEF7F0F982B20D4864230F4920
:1020D0004430FFF76DFCFEF77DFB0C481930FEF72E
:1020E000E3F982B209490648642319314430FFF705
:1020F0005FFC03489038FEF7EFFDFEE70044004028
:102100003003012000480040740100207D000020C1
:102110004FF04070E1EE100A70470000000001022D
:1021200003040000474554202F7570646174653FB7
:102130006B65793D3430574E42413150414634440D
:102140003339454F266669656C64313D25642666E2
:1021500069656C64323D2564266669656C64333D4F
:1021600025640D0A000000008821000800000020FE
:1021700074010000C40100084C2200087401002012
:10218000A40801002002000801123541540D0A285C
:102190000C535954454D20424547494E0F012349A0
:1021A000320D2553544F503111380D434F4E46498F
:1021B000475F574946495F6A397AD9195F46494EA0
:1021C0004953481A582253544152545F5452414E75
:1021D000534D49545F444154415F544F5F54484903
:1021E0004E47535045414B284E41542B5253C93909
:1021F0000D680943574D4F44453D31614914781BE3
:102200004A41503D225265646D69222C2230393892
:102210003736353433323130582228A129329D499E
:10222000465352553B4950901E3D2254435042382C
:10223000143138342E3130362E3135332E31343995
:0C224000222C38302D320182101324F4BF
:040000050800018965
:00000001FF
